:020000040000FA
:020000000528D1
:040002000034003492
:0200080061286D
:06000A00831603178901B3
:1000100001308800031377308100F03095008600AE
:10002000960085148701880189018C160C17181217
:10003000B0309F008312860188018608C8308B008B
:1000400090309800C030793084000230F800C03021
:100050009F000530FA009F200530FC000430FB00B3
:100060000830F90079308400013088000008502001
:10007000F6008700761F8813761B8817202103104F
:10008000880D840A081E36283228452872118316E6
:100090000C130C108312101088016300000008007C
:1000A00082073F3406345B344F3466346D347D341C
:1000B00007347F34673477347C3439345E347934B0
:1000C0007134F000030EF1000B19F1200C18A2207E
:1000D0008C1A73200B18E5200C1BA520710E8300D1
:1000E000F00E700E0900F2121A08FD007D18822031
:1000F000FD1888207D180800FD1808007D190800EB
:10010000F21608007214091189148D20D6200800F7
:100110007210891009158D200800721908007215D7
:1001200083160C148312B4309000992010149F2071
:10013000080096308E00E7308F000C1008001F1466
:100140009F14080099209F200800F21DDB2803104F
:100150001E0874020318B628831603101E087302C3
:1001600083120318B628F2140C130800F21C0800BE
:10017000F2107218CB20721CD02003107B08790279
:10018000031CC7287A087C020318C728C928091449
:10019000080009100800FC0A7C1E0800FC01FB0A8C
:1001A000FC037C1E08000F30FC00FB037D1985104A
:1001B0007D1D851408001E08F40083161E08643C8B
:1001C000F3008312F2150C13080083120313860840
:1001D0000B108B113C308100831681120B118B1692
:1001E0000800831603130B118B128312F9200B10D6
:1001F0008B15F5010E30F70077088600061E1329CF
:10020000F50A861E1329F50A061F1329F50A861F0B
:1002100013290314F70DF50A10307502031DFC288D
:1002200086018608080083137B30840078088402E6
:1002300075088000840AF80B08000230F8000800F6
:100240002830A0002930A100A10B2429A00B2229CD
:020250000800A4
:00000001FF
